:020000040800F2
:1000000088110020D5310008C92A0008492F0008AE
:100010004B2F00084D2F00084F2F00080000000054
:10002000000000000000000000000000512F000848
:10003000532F000800000000552F0008572F00081C
:10004000F1310008F1310008F1310008F131000808
:10005000F1310008F1310008F1310008F1310008F8
:10006000F1310008F1310008F1310008F1310008E8
:10007000F1310008F1310008F1310008F1310008D8
:10008000F1310008F1310008F1310008F1310008C8
:10009000892E0008F1310008F1310008472F0008CF
:1000A000F1310008F1310008F1310008F1310008A8
:1000B000CB2A0008E12C0008872E0008F131000847
:1000C000F1310008F1310008F1310008F131000888
:1000D000F1310008452F0008F1310008F131000826
:1000E000F1310008F1310008F131000810B50400C9
:1000F0000020DFF8F41A087006E0DFF8EC0A007858
:10010000401CDFF8E41A0870DFF8DC0A00780028E9
:1001100040F0A7810020DFF8D41A087001F047F8FA
:10012000F02001F095F80020DFF8C41A08701FE0F5
:10013000DFF8B80A0078DFF8BC1A405C002810D15C
:10014000002001F065F80020DFF8A41A0978DFF834
:10015000A82A8854DFF8940A0078401CDFF88C1A2B
:100160000870DFF88C0A0078401CDFF8841A0870E9
:10017000DFF87C0A0078402875DA01F095F8DFF89E
:100180007C1A0870022000F0B9FF01F08DF8DFF84A
:10019000701A0870022000F0B1FFDFF8600A0078E2
:1001A00000280FD1DFF8580A007801280AD1002072
:1001B000DFF83C1A0978DFF8402A8854002001F063
:1001C00027F8CEE7DFF8340A007801280FD1DFF8EE
:1001D000300A007800280AD10120DFF8141A0978C3
:1001E000DFF8142A8854012001F012F8B9E7DFF88B
:1001F000FC090078DFF8FC19405C022818D10020C7
:1002000001F006F80020DFF8E8190978DFF8E8299E
:1002100088540020DFF8D4190978DFF8D8298854E9
:10022000DFF8C8090078401CDFF8C019087098E7AB
:10023000DFF8B8090078DFF8BC19405C01287FF4CA
:1002400077AF012000F0E4FF0120DFF8A41909785E
:10025000DFF8A4298854DFF894090078401CDFF8FF
:100260008C1908707DE70020DFF88419087006E01B
:10027000DFF87C0900780830DFF874190870DFF8BF
:100280007009007840286BDA0020DFF878190870D0
:1002900020E0DFF85C090078082190FBF1F0DFF83E
:1002A0004819097814EBC101DFF8442912780823B2
:1002B00092FBF3F2DFF830391B7814EBC303D25C06
:1002C000D2B252084254DFF83C090078401CDFF8F3
:1002D00034190870DFF82C0900780828C8DADFF82C
:1002E00010090078DFF81C1909780818DFF80819D8
:1002F000405CC007CDD5DFF8F8080078082190FBF6
:10030000F1F0DFF8E418097814EBC101DFF8E02818
:100310001278082392FBF3F2DFF8CC381B7814EB49
:10032000C303D25CD2B252084254DFF8C40800784A
:10033000082190FBF1F0DFF8B018097814EBC10147
:10034000DFF8AC281278082392FBF3F2DFF8983834
:100350001B7814EBC303D25C52F080024254B2E724
:100360000020DFF8A41808700120DFF8801808705A
:1003700006E0DFF878080078401EDFF87018087093
:10038000DFF868080078002865D0DFF8600800789A
:10039000DFF86018405C0228EBD0DFF850080078E6
:1003A000DFF85018405C00280CD1DFF85C080078BA
:1003B000002807D10120DFF834180978DFF8342845
:1003C000885448E0DFF824080078DFF82818405CFB
:1003D000012811D1DFF814080078002807D0DFF8D1
:1003E00028080078401CDFF820180870C1E70120B9
:1003F000DFF8181808702EE0DFF8F0070078DFF853
:10040000F417405C0028B4D1DFF8FC07007800281E
:10041000AFD00120DFF8D4170978DFF8D827885447
:1004200014E0DFF8C8070078401CDFF8C017087038
:100430000220DFF8B8170978DFF8B8278854DFF80A
:10044000C8070078401EDFF8C0170870DFF8B8074B
:1004500000780028E5D1DFF8B407007801287FF4A0
:100460004CAEDFF884070078401CC0B210BD38B530
:10047000002500F09CFECC2000F0EAFE442000F0B5
:10048000E7FE40F2EE2000F056FE00242AE0DFF8FE
:100490001C0BB0F9000001F0CDF90022DFF8103B91
:1004A00001F0DEF901F0C4FADFF8001B0880DFF884
:1004B000FC0AB0F90000002813D0DFF8F00AB0F908
:1004C000000055280DD0DFF8E40AB0F900007D28BF
:1004D00007DADFF8D80A0088E4B2DFF8D81A21F882
:1004E0001400641CE4B2002C61D100F060FE5520C1
:1004F00000F0AEFE002509E0EDB2E4B2DFF8340B07
:1005000010EBC400285C00F0A3FE6D1CEDB2082DBA
:10051000F2DBBE2000F09CFE00F0EAFEDFF8181BC4
:10052000087000F0E5FEDFF8141B0870DFF80C0B14
:100530000078DFF8781A0880DFF8700A0088000277
:10054000DFF8681A0880DFF8640A0088DFF8E81A24
:1005500009780843DFF8541A0880DFF8500A008849
:1005600010F47840B0F5784F91D1DFF8400AB0F937
:100570000000C043401CDFF8341A0880DFF82C0A62
:10058000B0F9000001F056F90022DFF8243A01F03A
:1005900067F901F04DFADFF8141A0880DFF80C0A49
:1005A000B0F900004042DFF8041A08807FE75520C8
:1005B000DFF88C1A087031BD00217FF0270000227F
:1005C00011000DE0C9B2DFF8EC2932F9112000B2B8
:1005D000904204DAC9B2DFF8DC0930F91100491C95
:1005E000C9B20029EED0DFF85C1A0880DFF8581A8B
:1005F0000978490728D400B25F2818DBDFF84C1AC5
:100600000978491CDFF8442A1170DFF8401A09788C
:10061000052921DB0521DFF8342A1170DFF8301AB3
:10062000097851F00101DFF8282A117014E0002147
:10063000DFF8182A1170DFF8181A097811F0FE0196
:10064000DFF80C2A117007E0DFF8041A097811F0BE
:10065000FE01DFF8FC2911702830C0B2704700207D
:10066000DFF8F019C988DFF8EC29D2895118DFF8D2
:10067000E429D28A5118DFF8DC29D28B5118DFF82F
:10068000D429D28C5118052291FBF2F10800DFF831
:10069000C81909781E290EDADFF8BC190978491C37
:1006A000DFF8B429117080B2B0F5E16F03DB55219A
:1006B000DFF8A8291170DFF890190978C90761D40B
:1006C000DFF89819097855294FD0DFF88C19097887
:1006D0001E294ADBDFF888190978C1F34011C9B235
:1006E000002920D080B2DFF87C190968C83188421F
:1006F0000CD3DFF86C09007850F01000DFF86019B7
:1007000008700020DFF86019086047E0DFF8500942
:10071000007810F0EF00DFF8481908700120DFF8CA
:10072000481908603AE080B2DFF83819096811F515
:100730007A7188420CD3DFF82809007850F0100055
:10074000DFF81C1908700020DFF81C19086025E08C
:10075000DFF80C09007810F0EF00DFF804190870DA
:100760000120DFF80419086018E0DFF8F4080078C9
:1007700010F0EF00DFF8E81808700120DFF8E81843
:1007800008600BE0DFF8D808007810F0EF00DFF821
:10079000D01808700120DFF8D01808607047DFF823
:1007A000B4080088DFF8AC1809890818DFF8A41825
:1007B000098A0818DFF89C18098B0818DFF89418C4
:1007C000098C0818052190FBF1F0DFF8A0180978D2
:1007D0001E290FDADFF894180978491CDFF88C28F5
:1007E000117080B240F60A71884203DB5521DFF8B0
:1007F00080281170DFF850180978890729D4DFF8AC
:100800007018097855291BD0DFF8601809781E295F
:1008100016DB80B240F6C411884208DBDFF84008DE
:10082000007850F02000DFF83818087019E0DFF881
:100830003008007810F0DF00DFF82418087010E0AE
:10084000DFF81C08007810F0DF00DFF814180870DB
:1008500007E0DFF80C08007810F0DF00DFF8001880
:100860000870704780B5FFF79AFFFFF7F8FEDFF8D2
:10087000F007007810F0300030280CD10020DFF8AD
:10088000F4170870DFF8F007007850F00100DFF887
:10089000E817087017E0DFF8DC070078401CDFF885
:1008A000D4170870DFF8CC0700781E280BDB1E2059
:1008B000DFF8C0170870DFF8C007007810F0FE00FE
:1008C000DFF8B417087001BDDFF888074088DFF84B
:1008D000841749890818DFF87C17498A0818DFF857
:1008E0007417498B0818DFF86C17498C0818052114
:1008F00090FBF1F0DFF884170880DFF85807808854
:10090000DFF8501789890818DFF84817898A08180E
:10091000DFF84017898B0818DFF83817898C08181A
:10092000052190FBF1F0DFF858170880DFF8540735
:10093000007815281CDADFF84C070078401CDFF837
:1009400044170870DFF83407008840F60A718842BF
:1009500003DB5520DFF830170870DFF82407008824
:1009600040F60A71884203DB5520DFF82017087033
:10097000DFF8D4060078C00675D4DFF804070088D5
:10098000B0F5966F19DBDFF804070078552814D00E
:10099000DFF8FC060078401CDFF8F4160870DFF87A
:1009A000F0060078142810DB1420DFF8E416087035
:1009B0005520DFF8E016087007E00020DFF8D416B5
:1009C00008700020DFF8C8160870DFF8B00600884D
:1009D000B0F5966F19DBDFF8B0060078552814D013
:1009E000DFF8B4060078401CDFF8AC160870DFF8BA
:1009F000A8060078142810DB1420DFF89C16087075
:100A00005520DFF89816087007E00020DFF88C16F4
:100A100008700020DFF880160870DFF88006007884
:100A2000552804D0DFF86C060078552808D1DFF887
:100A30003006007850F08000DFF8241608701AE0C5
:100A4000DFF858060078002815D1DFF8480600784E
:100A5000002810D1DFF80806007810F07F00DFF8DA
:100A60000016087007E0DFF8F805007810F07F0046
:100A7000DFF8EC1508707047DFF8240600783D2891
:100A800014DADFF81C060078401CDFF81416087032
:100A9000DFF810060068002808D1DFF80C0600789F
:100AA000552803D05520DFF800160870DFF8F80548
:100AB0000078002831D1DFF8E80500783C282CDBED
:100AC000DFF884050078400722D4DFF8D8050068F5
:100AD000002814D1DFF8D4050078401CDFF8CC15CD
:100AE0000870DFF8C805007803281ADB0320DFF858
:100AF000BC1508705520DFF8B815087011E000200B
:100B0000DFF8AC1508700020DFF8A015087008E0C9
:100B10000020DFF89C15087003E00020DFF8901536
:100B2000087070470000000070B50024DFF884559D
:100B3000DFF880050068DFF88015884222D072B6A1
:100B40000426012000F09AFF00F0FAFF352001F0A2
:100B50007AF8DFF8600501F007F80600F6B2042E17
:100B60000DD109E0E4B2DFF8540550F82410280054
:100B700001F029F8641C2D1DE4B2022CF2DB62B6F0
:100B800000F0E9FF70BD000070B50024DFF83055BB
:100B9000DFF82C050068DFF82C15884222D072B6E9
:100BA0000426012000F06AFF00F0CAFF352001F0A2
:100BB0004AF8DFF80C0500F0D7FF0600F6B2042E65
:100BC0000DD109E0E4B2DFF8000550F82410280048
:100BD00000F0F9FF641C2D1DE4B2022CF2DB62B6BA
:100BE00000F0B9FF70BD000058010020570100203F
:100BF0005901002000000020780000205A01002048
:100C00005B0100205E0100205C0100205D010020EE
:100C100070B50024DFF89C54DFF8A464DFF8AC045E
:100C20000078002800F0C181DFF8A0040078401EA1
:100C3000DFF8981408700822DFF89414DFF89404A1
:100C400001F03CF8DFF88C040078A3285CD1DFF8D1
:100C500084044078F12857D1DFF878048078AA28F6
:100C600052D1DFF87004C07855284DD1DFF8640404
:100C70000079DFF860144979090451EA0060DFF86F
:100C80005414897950EA0120DFF84814C9790843DF
:100C9000DFF844140860DFF840040068DFF83C1413
:100CA0000968884200F08181DFF82C040068DFF8D1
:100CB0000C14486072B60426012000F0DFFE00F03C
:100CC0003FFF352000F0BFFFDFF8E80300F04CFFE6
:100CD0000600F6B2042E0DD109E0E4B2DFF8DC0321
:100CE00050F82410280000F06EFF641C2D1DE4B2A3
:100CF000022CF2DB62B600F02EFFDFF8E0030068A2
:100D0000DFF8DC13086050E1DFF8C8030078A3289F
:100D10005FD1DFF8C0034078F1285AD1DFF8B4037F
:100D20008078AA2855D1DFF8AC03C078AA2850D122
:100D3000DFF89003DFF890130860DFF8980300797C
:100D4000DFF890134979090451EA0060DFF8841351
:100D5000897950EA0120DFF87C13C9790843DFF86C
:100D600084130860DFF87C030068DFF87C130968EF
:100D7000884200F01A81DFF86C030068DFF848133E
:100D8000486072B60425012000F078FE00F0D8FE1D
:100D9000352000F058FFDFF8280300F0E5FE0500DD
:100DA000EDB2042D0DD109E0E4B2DFF81C0350F8D8
:100DB0002410300000F007FF641C361DE4B2022C42
:100DC000F2DB62B600F0C7FE5520DFF82013087092
:100DD000EBE0DFF800030078A32840F0E680DFF8BE
:100DE000F4024078F12840F0E080DFF8E8028078F3
:100DF000AA2840F0DA80DFF8DC02C0785A2840F0F8
:100E0000D480DFF8DC020068DFF8E412401A2CD04E
:100E1000401E32D0401E38D0401E3ED0401E44D02E
:100E2000401E4AD0401E50D0401E56D0401E5CD0BE
:100E3000401E62D0401E68D0401E6ED0401E74D04E
:100E4000401E7AD0401E00F08080401E00F0858059
:100E5000401E00F08A80401E00F08F80401E00F08F
:100E60009480401E00F099809FE09A480079C00766
:100E700002D555209D49087097E096480079800773
:100E800002D55520994908708FE0924800794007B3
:100E900002D555209549087087E08E4800790007F3
:100EA00002D55520914908707FE08A480079C00634
:100EB00002D555208D49087077E086480079800674
:100EC00002D55520894908706FE0824800794006B4
:100ED00002D555208549087067E07E4800790006F4
:100EE00002D55520814908705FE07A484079C007F3
:100EF00002D555207D49087057E076484079800733
:100F000002D55520794908704FE072484079400772
:100F100002D555207549087047E06E4840790007B2
:100F200002D55520714908703FE06A484079C006F3
:100F300002D555206D49087037E066484079800633
:100F400002D55520694908702FE062484079400673
:100F500002D555206549087027E05E4840790006B3
:100F600002D55520614908701FE05A488079C007B2
:100F700002D555205D49087017E0564880798007F2
:100F800002D55520594908700FE052488079400732
:100F900002D555205549087007E04E488079000772
:100FA00002D5552051490870FFE770BD4C01002063
:100FB0000000B03FE000002070B500244D4D4D48CA
:100FC0000068B0F15A3F33D02248C0882149C9890E
:100FD00008182049C98A08181E49C98B08181D49D4
:100FE000C98C0818052190FBF1F04349486072B69E
:100FF0000426012000F042FD00F0A2FD352000F0A3
:1010000022FE3C4800F0B0FD0600F6B2042E0CD1E2
:1010100008E0E4B2384850F82410280000F0D3FD6E
:10102000641C2D1DE4B2022CF3DB62B600F093FDCC
:1010300070BD000028000020600100205F0100203A
:10104000780100205201002074010020610100207D
:1010500044010020B800002062010020630100204C
:101060003001002004E800089C8121426401002036
:101070006501002066010020400100204E01002093
:101080005001002068010020690100206D0100204E
:101090006A0100206C010020670100206B01002024
:1010A0006F01002000812142700100206E010020AC
:1010B0005601002000F00008AAAA55550C00002097
:1010C00000F800085555AAAA140000207701002056
:1010D000FF000020280100203401002004F0000857
:1010E0003C0100203801002004F8000879010020AC
:1010F000515AFF1800E800081C000020092148434D
:10110000DFF8D81608600020DFF8D4160860012048
:10111000DFF8D0160860DFF8CC06006810F0011088
:101120000128F8D00020DFF8BC1608600020DFF8A6
:10113000B0160860704780B242F228314843DFF8A9
:101140009C1608600020DFF8981608600120DFF880
:1011500094160860DFF88C06006810F00110012872
:10116000F8D00020DFF87C1608600020DFF8701649
:101170000860704780B50820ADF8000048208DF861
:10118000030000A9DFF8600600F09EFD01BD80B5F8
:101190000820ADF8000003208DF8020010208DF823
:1011A000030000A9DFF8400600F08EFD01BD80B508
:1011B000FFF7EDFF0120DFF8341608600A20FFF783
:1011C0009DFF0020DFF8241608604FF4FA70FFF747
:1011D00095FF0120DFF8141608604FF49670FFF7B2
:1011E0008DFFFFF7C7FFDFF808060068DFF8041679
:1011F00008701420FFF782FFFFF7C9FF0120DFF816
:10120000EC150860DFF8EC05007802BD0000000076
:1012100010B5040072B6FFF7BAFF0020DFF8CC1556
:1012200008600220FFF76AFFE00704D50120DFF81D
:10123000BC15086003E00020DFF8B01508603C2012
:10124000FFF75CFF0120DFF8A415086062B610BD4F
:1012500038B5040072B6FFF79AFF00250EE00020B3
:10126000DFF8881508603220FFF748FF0120DFF81B
:101270007C1508600A20FFF741FF6D1CEDB2082DB8
:1012800010DA0020DFF8641508600520FFF736FF4C
:10129000E4B254FA05F0C007E1D50120DFF84C159F
:1012A0000860E0E762B631BD10B572B6FFF76FFFB8
:1012B0000020DFF8381508600220FFF71FFF01202B
:1012C000DFF8281508600720FFF718FFFFF752FF27
:1012D000DFF81C0504683C20FFF710FFFFF757FFFD
:1012E0000120DFF80815086062B62000C0B210BD0A
:1012F00038B50024002572B6002004001EE0EDB2CF
:101300006D08FFF744FF0020DFF8E01408600420B8
:10131000FFF7F4FE0120DFF8D41408600A20FFF77D
:10132000EDFEFFF727FFDFF8C8040068012801D1B0
:1013300055F080052D20FFF7E1FE641CE4B2082C77
:10134000DDDB62B62800C0B232BD80B501210120CC
:1013500000F0B9FB0121022000F0B5FB01215FF094
:10136000007000F0B0FB0121012000F09CFB012186
:101370007C2000F098FB01BD38B504000D0045F25B
:10138000555000F005FD2000C0B200F005FD28001A
:1013900080B200F005FD00F007FD00F00AFD31BD50
:1013A00080B500F001FD01BD80B55FF0804000F028
:1013B0000BFD6320DFF84014888048F69F40DFF87B
:1013C000381408800020DFF83014C8800020DFF8CF
:1013D00028144880DFF820145FF0804000F0E3FD1F
:1013E0004FF4A06000F068FE1C20DFF810140870B5
:1013F0000020DFF8081448700020DFF8001488701F
:101400000120DFF8F813C870DFF8F00300F059FE90
:10141000012201215FF0804000F01DFE01215FF0FC
:10142000804000F00AFE01BD80B5DFF8D40300F073
:10143000CBFCC720DFF8C013888048F69F40DFF858
:10144000B81308800020DFF8B013C8800020DFF850
:10145000A8134880DFF8A013DFF8A40300F0A3FD71
:101460004FF4A06000F028FE1D20DFF890130870F4
:101470000020DFF8881348700120DFF8801388709F
:101480000120DFF87813C870DFF8700300F019FE50
:1014900001220121DFF8680300F0DDFD0121DFF802
:1014A000600300F0CAFD01BD80B54FF48070ADF857
:1014B000000003208DF8020010208DF8030000A921
:1014C000DFF8240300F000FC0020DFF83C13086084
:1014D0000120ADF8000001208DF8020048208DF8B1
:1014E000030000A9DFF81C0300F0EEFB01BD80B58E
:1014F0003020ADF8000010208DF8030003208DF897
:10150000020000A9DFF8E00200F0DEFB8020ADF869
:10151000000010208DF8030003208DF8020000A9C0
:10152000DFF8E00200F0D0FB0120DFF8E0120860F5
:101530000120DFF8DC1208600020DFF8D812086014
:10154000C820FFF7F8FD01BD00B589B0B2480078AA
:10155000B24908704FF48050ADF8000018208DF8A3
:10156000030003208DF8020000A99F4800F0ACFBA7
:101570004FF40060ADF8000048208DF80300032010
:101580008DF8020000A9984800F09EFBA44800F0E6
:10159000D3FD01A800F0FCFE00208DF80A00012018
:1015A0008DF80B0000208DF80C0000208DF80D0048
:1015B00000208DF80E0000208DF80F0000208DF81F
:1015C000060000208DF8070094480078642809D1AF
:1015D0000F208DF8080002208DF809001220ADF8C8
:1015E000040032E08D4800787D2809D10C208DF868
:1015F000080001208DF809001220ADF8040024E055
:1016000086480078FA2809D10C208DF808000120BE
:101610008DF809000920ADF8040016E07F48007835
:10162000322809D10D208DF8080002208DF809001C
:101630000420ADF8040008E00C208DF8080001201B
:101640008DF809000920ADF8040001A9744800F0E4
:101650008EFD00208DF81E0000208DF81F00012057
:101660008DF820004CF2F870ADF8140049F2A0108B
:10167000ADF816004FF6FF70ADF818004FF6F87091
:10168000ADF81A000020ADF81C0001208DF82100F3
:1016900005A800F0F4FD01220221614800F09FFF3F
:1016A0004FF4A06000F008FD14208DF81000002019
:1016B0008DF8110002208DF8120001208DF8130022
:1016C00004A800F0FEFC09B000BD00B591B00121F6
:1016D000012000F0D8F901214FF4017000F0E3F986
:1016E000C620ADF8000000208DF8030000A93E4898
:1016F00000F0EAFA4B4800F0D9FF4B4806904B48FF
:101700000790002008901420099000200A90802063
:101710000B904FF480700C904FF480600D9020205F
:101720000E904FF400500F900020109006A93D48F5
:1017300001F041F8002202213A4801F069F8012144
:10174000384801F057F80020019001208DF808007A
:1017500001208DF809005FF46020039000200490C0
:1017600004208DF8140001A9314801F079F806230E
:10177000012207212E4801F0DEF806230222012172
:101780002B4801F0D8F8062303220221284801F053
:10179000D2F8062304220621254801F0CCF80121C5
:1017A000234801F090F80121214801F07FF82048FA
:1017B00001F096F81E4801F098F80028FAD11C486C
:1017C00001F09DF81A4801F09FF80028FAD1012194
:1017D000174801F0A3F811B000BD000014E000E0CC
:1017E00018E000E010E000E0000801408C01214218
:1017F0000C012142540100201C010020480100205E
:1018000000040040000C0140A00121429C812142C3
:10181000900121429401214206F800085501002060
:1018200000640040080002404C240140B800002041
:1018300000240140010040F10780F446404200F0DE
:1018400003F851F00041604709D0B0FA80F18840B8
:10185000C91CC1F58461090501EBD0214005704721
:10186000B0B581EA030C0CF0004C40F2FF7515EAAC
:1018700011541DBF15EA1357AC42AF4239E0E419C9
:1018800023EA455343F48013C90241F0004141EA81
:10189000505EC7021100A7FB020200284FF00000B3
:1018A000EEFB01204FF00001E3FB072118BF42F0DF
:1018B0000102401800214941E3FB0E01A4F58064B8
:1018C0000F0302D252004041494154F101046CDD42
:1018D000470872F1004250F1000051EB0451A1F5AC
:1018E00080115CBF41EA0C01B0BD4CEA05510020FB
:1018F000B0BD05EA1357AC4214BFAF4241E050EA15
:10190000410E1CBF52EA430E02E061460020B0BD0A
:1019100024423C441BD15FEA070EF6D0090302BF04
:1019200001460020AEF1140EB1FA81F7AEEB0704C8
:1019300001FA07FE0C37C7F1200100FA07F7C8408B
:101940004EEA000E23EA455343F48013A2E733F036
:101950000043B3FA83F704BFB2FA82FE77440B3F29
:10196000E41BB7F1200E2FBF02FA0EF3BB40C7F104
:10197000200E22FA0EFE38BF43EA0E03BA40641C62
:1019800082E750EA410E14BF52EA430E6FF00001A5
:101990004FF4001717EB430F8ABF194617EB410F9F
:1019A000B5E74CEA05510020B0BDD4F10104B4F113
:1019B00020070FDAC4F12007520828BF42F00102C5
:1019C00010FA07F501FA07F7E1BF2A43E040384370
:1019D000E1400FE0352C98DCC7F1200452EA4002C8
:1019E00020FA07F218BF42F0010231FA07F0A140D5
:1019F0000A43002172F1004250F1000051EB0C014A
:101A0000B0BD10B450F8041B81B102681218001D5B
:101A100050F8043BDC0744BFA9F10104E31852F875
:101A2000044B43F8044B091FF9D1EBE710BC704796
:101A3000F446400D40EAC120490006D200F00EF8FD
:101A4000004248BF6FF00040604700F007F84FF0D9
:101A5000004188428CBF08464042604740F0004049
:101A6000490DA1F58061491C05D4D1F11F0154BF76
:101A7000C840C01770474FF000007047C0B2DFF891
:101A8000A81008607047C9B2002905D02749096825
:101A900008432649086005E02449096831EA000046
:101AA000224908607047C9B2002905D02049096859
:101AB00008431F49086005E01D49096831EA000034
:101AC0001B4908607047C9B2002905D01949096847
:101AD00008431849086005E01649096831EA000022
:101AE000144908607047C9B2002905D01249096835
:101AF00008431149086005E00F49096831EA000010
:101B00000D4908607047C9B2002905D00B49096822
:101B100008430A49086005E00849096831EA0000FD
:101B2000064908607047000000004242141002405D
:101B3000181002401C1002400C100240101002400D
:101B4000DFF83401DFF834110860DFF83401DFF822
:101B50002C1108607047DFF82C01006850F08000FD
:101B6000DFF820110860704738B5040004255FF4E1
:101B7000302000F08DF80500EDB2042D20D1DFF803
:101B80000401006850F00200DFF8F8100860DFF888
:101B9000F8000460DFF8EC00006850F04000DFF867
:101BA000E41008605FF4302000F072F80500DFF800
:101BB000D400006841F6FD710840DFF8C8100860E5
:101BC0002800C0B232BD70B582B005000C000426FA
:101BD000002000904FF4005000F05AF80600F6B2D2
:101BE000042E2DD1DFF89C00006850F00100DFF8D2
:101BF000941008602C804FF4005000F049F8060063
:101C0000F6B2042E13D1A81C0090200C0099088075
:101C10004FF4005000F03CF80600DFF86800006860
:101C200041F6FE710840DFF85C10086008E0DFF85C
:101C30005400006841F6FE710840DFF84810086063
:101C40003000C0B276BD11490860704704200F49CA
:101C50000968C90701D501200CE00C48006840075D
:101C600001D5022006E009480068C00601D503201E
:101C700000E00420C0B27047230167450420024001
:101C8000AB89EFCD10200240142002400C2002400E
:101C900038B504000425FFF7D9FF050003E0FFF77E
:101CA000D5FF0500641EEDB2012D01D1002CF6D147
:101CB000002C00D105252800C0B232BD10B5044665
:101CC00000F0A0FE204610BDF0B400220026002443
:101CD00000250023002791F803C01CF00F0C62467A
:101CE00091F803C05FEACC6C01D58B781A430B786E
:101CF0001B0621D00368002406E0CD78482D02D1D0
:101D00000125A5400561641C082C14D20125A540BD
:101D10000E882E40AE42F6D1A5000F2616FA05F722
:101D2000BB4312FA05F52B43CD78282DE5D10125CB
:101D3000A5404561E7E703600B88FF2B26DD43687C
:101D4000002420E0012514F10806B5400E882E403D
:101D5000AE4217D1A5000F2616FA05F7BB4312FABB
:101D600005F52B43CD78282D04D1012514F1080663
:101D7000B5404561CD78482D04D1012514F1080600
:101D8000B5400561641C082CDCD34360F0BC70478F
:101D900080B20A4908607047C0B2094908607047BC
:101DA00080B20849086070474AF6AA2003490860D3
:101DB00070474CF6CC400149086070470030004045
:101DC000043000400830004080B5DFF8AC12884293
:101DD0000AD101214FF40060FFF785FE00214FF486
:101DE0000060FFF780FEDDE0B0F1804F08D10121F7
:101DF0000120FFF788FE00210120FFF784FED1E0DB
:101E0000DFF87812884208D101210220FFF77BFE1B
:101E100000210220FFF777FEC4E0DFF86412884259
:101E200008D101210420FFF76EFE00210420FFF7F6
:101E30006AFEB7E0DFF84C12884208D10121082081
:101E4000FFF761FE00210820FFF75DFEAAE0DFF842
:101E50003812884208D101211020FFF754FE0021DA
:101E60001020FFF750FE9DE0DFF82012884208D1D5
:101E700001212020FFF747FE00212020FFF743FE2D
:101E800090E0DFF80C1288420AD101214FF4005093
:101E9000FFF729FE00214FF40050FFF724FE81E0F8
:101EA000DFF8F01188420AD101215FF40020FFF72A
:101EB0001AFE00215FF40020FFF715FE72E0DFF844
:101EC000D81188420AD101215FF48010FFF70BFE80
:101ED00000215FF48010FFF706FE63E0DFF8BC111D
:101EE00088420AD101215FF40010FFF7FCFD0021B8
:101EF0005FF40010FFF7F7FD54E0DFF8A41188420B
:101F000008D101214020FFF7FEFD00214020FFF70E
:101F1000FAFD47E0DFF88C11884208D101218020CA
:101F2000FFF7F1FD00218020FFF7EDFD3AE0DFF83B
:101F3000781188420AD101214FF48070FFF7E3FD48
:101F400000214FF48070FFF7DEFD2BE0DFF85C111D
:101F500088420AD101215FF48030FFF7C4FD0021DF
:101F60005FF48030FFF7BFFD1CE0DFF844118842CA
:101F70000AD101215FF40030FFF7B5FD00215FF4C5
:101F80000030FFF7B0FD0DE0DFF82811884209D1DD
:101F900001215FF48020FFF7A6FD00215FF480207F
:101FA000FFF7A1FD01BD002203881A00DFF8C83049
:101FB000984212D0DFF8D83098420ED0B0F1804F5E
:101FC0000BD0DFF8B830984207D0DFF8B430984231
:101FD00003D0DFF8B030984204D14FF68F731A4027
:101FE0004B881A43DFF8A030984208D0DFF89C30C5
:101FF000984204D04FF6FF431A40CB881A43028020
:102000008A8882850A880285DFF86C2090420FD08A
:10201000DFF87C2090420BD0DFF89020904207D070
:10202000DFF88C20904203D0DFF88820904201D165
:10203000097A0186012181827047C9B2002904D042
:10204000018851F00101018004E001884FF6FE7221
:10205000114001807047D2B2002A03D08289114317
:10206000818103E0828932EA01018181704789B26E
:10207000C943018270470000002C01400004004069
:1020800000080040000C0040001000400014004018
:1020900000340140004C0140005001400054014018
:1020A00000180040001C004000200040004001409B
:1020B00000440140004801401A4908431A49086099
:1020C000704710B4002100220F23C478002C1DD0CB
:1020D0001549096811F4E061D1F5E061090AD1F10F
:1020E0000402CB404178914082781A4011430901A3
:1020F00002780E4BD1540121027812F01F02914058
:10210000007840110A4A42F8201009E001210278C3
:1021100012F01F02914000784011064A42F8201048
:1021200010BC70470000FA050CED00E000E400E090
:1021300000E100E080E100E080B5DFF85015884262
:102140000AD101215FF00070FFF7DDFC00215FF094
:102150000070FFF7D8FC09E001215FF08060FFF715
:10216000D2FC00215FF08060FFF7CDFC01BD10B410
:1021700000220023046834F002040460046854F070
:102180000104046000E05B1C4268D20703D44FF6F0
:10219000FF729342F7D14268D20701D400226AE06D
:1021A0008A79012A04D1026852F08002026003E0B9
:1021B000026832F080020260CA79012A04D1026802
:1021C00052F04002026003E0026832F04002026016
:1021D0000A7A012A04D1026852F02002026003E068
:1021E000026832F0200202604A7A012A04D10268B1
:1021F00052F01002026003E0026832F01002026046
:102200008A7A012A04D1026852F00802026003E0CF
:10221000026832F008020260CA7A012A04D1026818
:1022200052F00402026003E0026832F0040202602D
:102230008A78CB781B0653EA82720B7952EA034202
:102240004B7952EA03520988491E1143C161016862
:10225000490849000160002300E05B1C4168C90790
:1022600003D54FF6FF718B42F7D14068C00701D507
:10227000002200E001221000C0B210BC704710B470
:1022800000210122837A9A401100DFF804241268A9
:1022900052F00102DFF8F8331A60DFF8F823126811
:1022A0008A43DFF8F0331A60027B002A19D1DFF885
:1022B000E82312688A43DFF8E0331A60C288438853
:1022C00053EA0242837ADFF8D44344F83320827A17
:1022D000DFF8C83313EBC2028388048854EA03434F
:1022E0005360027B012A19D1DFF8AC2312680A433C
:1022F000DFF8A4331A600288438853EA0242837AE3
:10230000DFF8984344F83320827ADFF8903313EBF8
:10231000C2028388C48854EA03435360C27A002A05
:1023200007D1DFF87C2312688A43DFF874331A6020
:1023300006E0DFF86C2312680A43DFF864331A60A2
:102340000289002A06D1DFF85C2312688A43DFF88D
:1023500054331A600289012A06D1DFF84823126833
:102360000A43DFF840331A60407B012806D1DFF8CA
:10237000240300680843DFF81C130860DFF810032B
:10238000006840084000DFF80813086010BC704780
:10239000002181710021C17100210172002141726F
:1023A000002181720021C172002181700021C17061
:1023B000032101710221417101210180704730B474
:1023C000002283685B0101D500220AE082681201C5
:1023D00001D5012205E08268D20001D5022200E089
:1023E0000422D2B2042A75D0D2B210EB0213D3F871
:1023F000803113F00103D2B210EB0214C4F8803123
:102400000B7A002B0FD1D2B210EB0213D3F880312C
:102410000C684D7A55EA44542343D2B210EB0214AF
:10242000C4F8803110E0D2B210EB0213D3F880313F
:102430004C680D7A55EAC4044D7A2C432343D2B23A
:1024400010EB0214C4F880318B7A13F00F038B72F7
:10245000D2B210EB0213D3F884311B091B01D2B2A4
:1024600010EB0214C4F88431D2B210EB0213D3F88B
:1024700084318C7A2343D2B210EB0214C4F8843135
:102480008B7B4C7B240454EA03630C7B53EA0423C8
:10249000CC7A2343D2B210EB0214C4F888318B7C7F
:1024A0004C7C240454EA03630C7C53EA0423C97B68
:1024B0001943D2B210EB0213C3F88C11D2B210EB55
:1024C0000211D1F8801151F00101D2B210EB0210CB
:1024D000C0F880111000C0B230BC7047C9B210EB18
:1024E0000113D3F8B03113F004031372137A002BE5
:1024F00007D1C9B210EB0113D3F8B0315B0D1360F3
:1025000006E0C9B210EB0113D3F8B031DB08536019
:10251000C9B210EB0113D3F8B03113F002035372B8
:10252000C9B210EB0113D3F8B43113F00F03937257
:10253000C9B210EB0113D3F8B4311B0AD374C9B27A
:1025400010EB0113D3F8B831D372C9B210EB0113F9
:10255000D3F8B8311B0A1373C9B210EB0113D3F8C7
:10256000B8311B0C5373C9B210EB0113D3F8B83157
:102570001B0E9373C9B210EB0113D3F8BC31D373A4
:10258000C9B210EB0113D3F8BC311B0A1374C9B2E2
:1025900010EB0113D3F8BC311B0C5374C9B210EB10
:1025A0000113D3F8BC311B0E9374C9B2002904D1B6
:1025B000C16851F02001C16003E0016951F02001C0
:1025C00001617047C9B2002904D1C16851F02001EE
:1025D000C16003E0016951F0200101617047D2B28E
:1025E000002A03D042691143416103E0426932EAA3
:1025F00001014161704701291DD004291ED008291D
:102600001FD0202920D0402921D0B1F5807F27D0AC
:10261000B1F5007F27D0B1F5806F27D0B1F5006FFD
:1026200027D0B1F5004F29D0B1F5803F12D0B1F5D8
:10263000003F12D027E01C49816024E00821C160DE
:1026400021E01021C1601EE0082101611BE0102182
:10265000016118E00821416015E01021416012E09D
:10266000042141600FE0042141600CE0042141603D
:1026700009E0002181610421416004E000218161C1
:1026800004214160FFE77047000000000064004043
:10269000006600401C6600400C660040406600403A
:1026A00004660040146600400101010001684FF615
:1026B000FE72114001600021016000214160002193
:1026C00081600021C1605849884206D1574800689E
:1026D00050F00F00554908606CE05549884206D11A
:1026E0005248006850F0F0005049086062E05149DB
:1026F000884206D14D48006850F470604B4908602C
:1027000058E04D49884206D14848006850F470406E
:10271000464908604EE04949884206D1434800686E
:1027200050F470204149086044E04549884206D190
:102730003E48006850F470003C4908603AE0414966
:10274000884206D13948006850F070603749086007
:1027500030E03D49884206D13C48006850F00F0007
:102760003A49086026E03A49884206D1374800686D
:1027700050F0F000354908601CE03649884206D127
:102780003248006850F470603049086012E0324905
:10279000884206D12D48006850F470402B490860EB
:1027A00008E02E49884205D12848006850F470207E
:1027B00026490860704710B4002203681A006FF3BE
:1027C0000E128B680C6A23430C6923434C69234324
:1027D0008C692343CC6923434C6A23438C6A23438B
:1027E0001A430260CA6842600A6882604968C16030
:1027F00010BC7047C9B2002904D0016851F0010132
:10280000016004E001684FF6FE72114001607047FC
:10281000D2B2002A03D002681143016003E00268CB
:1028200032EA0101016070470800024004000240E2
:102830001C000240300002404400024058000240A8
:102840006C00024080000240080402400404024080
:102850001C04024030040240440402405804024078
:1028600030B40023002244682300DFF89041234065
:102870000C680D7954EA0524234343608368DFF82C
:1028800080412340CC688D682C434D7954EA45043F
:1028900023438360C36A33F47003097C491E0A43EF
:1028A000D2B253EA0253C36230BC7047C9B20029A6
:1028B00004D0816851F00101816003E0816849081A
:1028C000490081607047C9B2002904D0816851F481
:1028D0008071816003E0816831F4807181607047AC
:1028E000816851F00801816070470021806800070D
:1028F00001D5012100E000210800C0B270478168C5
:1029000051F004018160704700218068400701D5C3
:10291000012100E000210800C0B27047C9B20029BF
:1029200004D0816851F4A001816003E0816831F432
:10293000A00181607047F0B400240025C9B20A29C3
:1029400011DBC4680725B1F10A0603277E43B540B1
:10295000AC43DBB2B1F10A050326754313FA05F562
:102960002C43C4600EE004690725032606FB01F62C
:10297000B540AC43DBB2032505FB01F513FA05F5C1
:102980002C430461D2B2072A10DA446B1F23551E70
:102990000526754313FA05F5AC43C9B2521E05234B
:1029A0005A4311FA02F52C43446324E0D2B20D2AB3
:1029B00010DA046B1F23D51F0526754313FA05F59E
:1029C000AC43C9B2D21F05235A4311FA02F52C4376
:1029D000046310E0C46A1F23B2F10D050526754398
:1029E00013FA05F5AC43C9B20D3A05235A4311FA5F
:1029F00002F52C43C462F0BC70470000FFFEF0FFFC
:102A0000FDF7F1FF62B38B0708D0521E11F8013BAE
:102A100000F8013B00F024808B07F6D1830740F0DB
:102A2000208000BF103A07D330B4B1E83810103A14
:102A3000A0E83810F9D230BC530724BFB1E8081021
:102A4000A0E8081044BF51F8043B40F8043BD2070B
:102A500024BF31F8022B20F8022B44BF0B780370FF
:102A60007047083A07D3B1E80810083A40F8043B29
:102A700040F804CBF7D25307E4E750F8041B61B1E8
:102A800050F8042BD30744BFA9F101039A1800237F
:102A900042F8043B091FFAD1EFE77047012110F01B
:102AA0001F02914040B24009DFF8182442F820107C
:102AB0007047012110F01F02914040B24009DFF839
:102AC000082442F820107047704780B501215FF05C
:102AD0008040FFF7CCFADFF8F4030078401CDFF801
:102AE000EC130870DFF8E8030078C0F34000C0B2D0
:102AF000002820D00020DFF8DC130870DFF8D803AE
:102B00000078401CDFF8D0130870DFF8CC030078A1
:102B1000052847D10020DFF8C0130870DFF8BC0398
:102B20000068002801D1012000E00020C0B2DFF8D9
:102B3000AC13086036E0DFF8A803007803210842F0
:102B400020D00020DFF890130870DFF888030078A9
:102B5000401CDFF880130870DFF878030078142831
:102B600020D10020DFF86C130870DFF870030068D4
:102B7000002801D1012000E00020C0B2DFF85C1382
:102B800008600FE0DFF84803007810F0010000282B
:102B900004D00020DFF84413086003E00120DFF8D0
:102BA0003C130860DFF824030078DFF83813097855
:102BB000B0EB410F5ED10020DFF810130870DFF892
:102BC00010030078002804D1DFF8140300780028EF
:102BD00004D00420DFF8101308700DE0DFF8F002D5
:102BE0000078002808D1DFF8F8020078002803D127
:102BF0000220DFF8F4120870DFF8F0020068DFF856
:102C0000F01248600020DFF8E81248720420DFF874
:102C1000E01208720820B6498872B3480078B449B7
:102C2000C872AB480078B2490873AD480078B04923
:102C30004873FDF7C1FCAE4988730020AC49C873E6
:102C40000020AB4908740020A9494874A9480078BD
:102C5000A7498874A649A848FFF7B1FBA5480078A2
:102C6000FF2802D10020A3490870A2480078401C28
:102C7000A0490870A1480078552830D1A0489C4947
:102C8000486000209A494872042099490872082037
:102C900097498872954800689549C87299480078A4
:102CA000934908738F4800789149487320209049D0
:102CB000887322208E49C873934800788C49087421
:102CC000924800788A494874914800788849887405
:102CD00087498948FFF773FB00208849087001BDC8
:102CE00080B501218B48FFF7C2F98B480078401C62
:102CF00089490870884800780A281FD10020864931
:102D0000087081480078401C7F4908707E48007830
:102D10003C2813D100207C4908707C480078401C76
:102D20007A490870794800783C2807D10020774913
:102D3000087077480078401C75490870774800781B
:102D400001280AD076480078552806D10120734919
:102D50000870FDF731FC734908807248B0F9000033
:102D60007149B1F90010884245DA6E48B0F90000A7
:102D7000322840DB6A48007855283CD16B480078FF
:102D8000401C6A49087069480078642846D10020D0
:102D9000664908706348B0F900000A306249B1F929
:102DA0000010884216DA62480078000706D44C48C2
:102DB000007850F002004A49087005E04848007861
:102DC00010F0FD0046490870564800880A30554901
:102DD000088023E054480088524908804048007821
:102DE00010F0FD003E4908705248007810F0F700DE
:102DF0005049087012E04C4800884A490880384819
:102E0000007810F0FD00364908704A48007810F04C
:102E1000F70048490870002044490870FDF722FD7A
:102E2000FDF752FD2E48007810F00100002806D072
:102E300040480078C0B2C009C0B2002815D124486B
:102E4000007810F00100002816D03A480078C0B28F
:102E5000C009C0B2002808D12148007803210842E7
:102E600003D135480078552806D11948007850F02C
:102E700002001749087005E01548007810F0FD00C1
:102E80001349087001BD704780B51420FFF711FE8B
:102E900002211948FFF7AFFB284A00211648FFF727
:102EA0001DFB27480078052804DA25480078401CD7
:102EB0002349087000211048FFF784FB1420FFF716
:102EC000EDFD01BD00E100E080E100E07A010020BD
:102ED000400100207C0100207B0100209401214260
:102EE0004401002075010020260000203C01002044
:102EF000080100207D0100200064004079010020CD
:102F00002143FF1807F8000871010020720100201A
:102F10007301002000040040800100207F01002098
:102F20007801002024000020520100207E010020B2
:102F3000740100203001002056010020F400002020
:102F40007701002070477047FEE7FEE7FEE7FEE7E7
:102F5000704770477047704780B54F48006850F021
:102F600001004D4908604D4800684D4908404B49F3
:102F70000860494800684B4908404749086046488E
:102F8000006830F48020444908604448006830F408
:102F9000FE00424908605FF41F004349086000F0EA
:102FA00005F85FF000604149086001BD80B500F0A0
:102FB00001F801BD82B00020019000200090364849
:102FC000006850F48030344908603348006810F4D9
:102FD000003000900198401C01900098002803D117
:102FE0000198B0F5A06FF0D12B480068800302D59E
:102FF0000120009001E0002000900098012847D1B6
:103000002B48006850F010002949086028480068E3
:1030100080088000264908602548006850F00200BA
:10302000234908601D4800681C4908601B48006867
:103030001A4908601948006850F480601749086010
:103040001648006830F47C10144908601348006882
:1030500050F4E810114908600F48006850F0807083
:103060000D4908600C4800688001FBD50B480068DA
:1030700080088000094908600848006850F0020094
:10308000064908600548006810F00C000828F9D1CE
:1030900002B070470000000000100240041002401F
:1030A0000000FFF8FFFFF6FE0810024008ED00E008
:1030B0000020024080B5FEF748F9FEF718FAFEF747
:1030C000F3F9FDF731FDFDF75FFDFEF73DFA154819
:1030D000007815490870154800781549087015489A
:1030E000006815490860FEF7F0FA1448FCF7FEFF87
:1030F00013490870FEF758F9FEF796F94FF4C871B6
:103100000520FEF739F9FDF7B2F9FDF7B5FCFDF73B
:103110007FFDFEF745F99620FEF70DF8FDF74CFF11
:10312000F1E700BF07F800087401002005F8000867
:103130007501002004F000083C0100202800002058
:103140007601002010B5074979441831064C7C44BB
:10315000163404E00A68081D511888470146A14248
:10316000F8D110BD08000000280000000FF9FFFF93
:103170005C010000280000200000000087E8FFFF3D
:103180002800000070000000000000200000000087
:1031900000F00BF8002801D0FFF7D4FF0020C04654
:1031A000C046FFF787FF00F002F80120704700F0EB
:1031B00001B800000746384600F002F8FBE70000BF
:1031C00080B5C046C046024A11001820ABBEFBE7DE
:1031D000260002000148804701480047592F000897
:1031E000E5310008C046C046C046C046FFF7D0FFE4
:1031F000FFF7FEBF02020202020202020202000008
:10320000AAAA5555515AFF185555AAAA0005FA0001
:0C3210005A5A5A5A00000000FF00020049
:04000005080031E5D9
:00000001FF
