:020000040800F2
:10000000781100204D30000845290008C52D000852
:10001000C72D0008C92D0008CB2D000800000000E6
:10002000000000000000000000000000CD2D0008CE
:10003000CF2D000800000000D12D0008D32D0008AE
:10004000693000086930000869300008693000082C
:10005000693000086930000869300008693000081C
:10006000693000086930000869300008693000080C
:1000700069300008693000086930000869300008FC
:1000800069300008693000086930000869300008EC
:10009000052D00086930000869300008C32D0008EC
:1000A00069300008693000086930000869300008CC
:1000B000472900085D2B0008032D0008693000085F
:1000C00069300008693000086930000869300008AC
:1000D00069300008C12D0008693000086930000847
:1000E00069300008693000086930000810B5040064
:1000F0000020DFF82C1A087006E0DFF8240A0078E8
:10010000401CDFF81C1A0870DFF8140A0078002879
:1001100040F0A7810020DFF80C1A087000F099FF6A
:10012000F02000F0E7FF0020DFF8FC1908701FE066
:10013000DFF8F0090078DFF8F419405C002810D1EE
:10014000002000F0B7FF0020DFF8DC190978DFF8A5
:10015000E0298854DFF8CC090078401CDFF8C41986
:100160000870DFF8C4090078401CDFF8BC1908707B
:10017000DFF8B4090078402875DA00F0E7FFDFF80F
:10018000B4190870022000F00BFF00F0DFFFDFF869
:10019000A8190870022000F003FFDFF89809007822
:1001A00000280FD1DFF89009007801280AD100203B
:1001B000DFF874190978DFF878298854002000F0F6
:1001C00079FFCEE7DFF86C09007801280FD1DFF85E
:1001D0006809007800280AD10120DFF84C19097855
:1001E000DFF84C298854012000F064FFB9E7DFF8FC
:1001F00034090078DFF83419405C022818D1002057
:1002000000F058FF0020DFF820190978DFF82029D6
:1002100088540020DFF80C190978DFF81029885479
:10022000DFF800090078401CDFF8F818087098E73C
:10023000DFF8F0080078DFF8F418405C01287FF45C
:1002400077AF012000F036FF0120DFF8DC180978D5
:10025000DFF8DC288854DFF8CC080078401CDFF891
:10026000C41808707DE70020DFF8BC18087006E0AD
:10027000DFF8B40800780830DFF8AC180870DFF851
:10028000A808007840286BDA0020DFF8B018087062
:1002900020E0DFF894080078082190FBF1F0DFF807
:1002A0008018097814EBC101DFF87C281278082344
:1002B00092FBF3F2DFF868381B7814EBC303D25CCF
:1002C000D2B252084254DFF874080078401CDFF8BC
:1002D0006C180870DFF8640800780828C8DADFF8BE
:1002E00048080078DFF8541809780818DFF8401833
:1002F000405CC007CDD5DFF830080078082190FBBE
:10030000F1F0DFF81C18097814EBC101DFF81828A8
:100310001278082392FBF3F2DFF804381B7814EB11
:10032000C303D25CD2B252084254DFF8FC07007813
:10033000082190FBF1F0DFF8E817097814EBC10110
:10034000DFF8E4271278082392FBF3F2DFF8D037C6
:100350001B7814EBC303D25C52F080024254B2E724
:100360000020DFF8781B08700120DFF8B81708704C
:1003700006E0DFF8B0070078401EDFF8A817087025
:10038000DFF8A0070078002865D0DFF8980700782C
:10039000DFF89817405C0228EBD0DFF88807007878
:1003A000DFF88817405C00280CD1DFF8300B0078AC
:1003B000002807D10120DFF86C170978DFF86C27D7
:1003C000885448E0DFF85C070078DFF86017405C8D
:1003D000012811D1DFF84C070078002807D0DFF89A
:1003E000FC0A0078401CDFF8F41A0870C1E701200D
:1003F000DFF8EC1A08702EE0DFF828070078DFF845
:100400002C17405C0028B4D1DFF8D00A007800280F
:10041000AFD00120DFF80C170978DFF810278854D7
:1004200014E0DFF800070078401CDFF8F8160870C9
:100430000220DFF8F0160978DFF8F0268854DFF89C
:100440009C0A0078401EDFF8941A0870DFF88C0AC6
:1004500000780028E5D1DFF8880A007801287FF4C9
:100460004CAEDFF8BC060078401CC0B210BD38B5F9
:10047000002500F0EEFDCC2000F03CFE442000F012
:1004800039FE40F2EE2000F0A8FD00242AE0DFF85B
:10049000540AB0F9000001F00BF90022DFF8483AE5
:1004A00001F01CF901F002FADFF8381A0880DFF8D1
:1004B000340AB0F90000002813D0DFF8280AB0F998
:1004C000000055280DD0DFF81C0AB0F900007D2887
:1004D00007DADFF8100A0088E4B2DFF8101A21F812
:1004E0001400641CE4B2002C61D100F0B2FD552070
:1004F00000F000FE002509E0EDB2E4B2DFF8F009FB
:1005000010EBC400285C00F0F5FD6D1CEDB2082D69
:10051000F2DBBE2000F0EEFD00F03CFEDFF8D41967
:10052000087000F037FEDFF8D0190870DFF8C8094E
:100530000078DFF8B0190880DFF8A8090088000209
:10054000DFF8A0190880DFF89C090088DFF8A419FB
:1005500009780843DFF88C190880DFF888090088DB
:1005600010F47840B0F5784F91D1DFF87809B0F900
:100570000000C043401CDFF86C190880DFF86409F4
:10058000B0F9000001F094F80022DFF85C3901F0C6
:10059000A5F801F08BF9DFF84C190880DFF8440961
:1005A000B0F900004042DFF83C1908807FE7552091
:1005B000DFF84819087031BD00217FF027000022C4
:1005C00011000DE0C9B2DFF8242932F9112000B280
:1005D000904204DAC9B2DFF8140930F91100491C5D
:1005E000C9B20029EED0DFF818190880DFF8141915
:1005F0000978490728D400B25F2818DBDFF808190A
:100600000978491CDFF800291170DFF8FC18097817
:10061000052921DB0521DFF8F0281170DFF8EC183F
:10062000097851F00101DFF8E428117014E000218D
:10063000DFF8D4281170DFF8D418097811F0FE0122
:10064000DFF8C828117007E0DFF8C018097811F04A
:10065000FE01DFF8B82811702830C0B270470020C2
:10066000DFF8AC18C988DFF8A828D2895118DFF85C
:10067000A028D28A5118DFF89828D28B5118DFF8B9
:100680009028D28C5118052291FBF2F10800DFF876
:1006900074180978C90729D480B2B0F5966F18DCB0
:1006A000DFF870080078401CDFF868180870DFF881
:1006B000640800781E2821DB1E20DFF85818087017
:1006C000DFF85408007850F01000DFF84C1808707C
:1006D00014E0DFF84408007810F0EF00DFF8381875
:1006E00008700020DFF82C18087007E0DFF82808F1
:1006F000007810F0EF00DFF8201808707047DFF87E
:1007000010080088DFF8081809890818DFF80018B1
:10071000098A0818DFF8F817098B0818DFF8F017AE
:10072000098C0818052190FBF1F0DFF8F017097823
:100730001E290FDADFF8E4170978491CDFF8DC27F7
:10074000117080B240F60A71884203DB5521DFF850
:10075000D0271170DFF8AC170978890729D4DFF8A2
:10076000C017097855291BD0DFF8B01709781E2962
:1007700016DB80B240F6C411884208DBDFF8980728
:10078000007850F02000DFF89017087019E0DFF8CB
:100790008807007810F0DF00DFF87C17087010E0A1
:1007A000DFF87407007810F0DF00DFF86C170870CE
:1007B00007E0DFF86407007810F0DF00DFF8581773
:1007C0000870704780B5FFF79AFFFFF748FFDFF822
:1007D0004807007810F03000302808D1DFF84407CF
:1007E000007850F00100DFF83C17087007E0DFF8F0
:1007F0003407007810F0FE00DFF82817087001BDFC
:10080000DFF80C074088DFF8081749890818DFF877
:100810000017498A0818DFF8F816498B0818DFF81E
:10082000F016498C0818052190FBF1F0DFF8F81656
:100830000880DFF8DC068088DFF8D416898908187C
:10084000DFF8CC16898A0818DFF8C416898B0818D7
:10085000DFF8BC16898C0818052190FBF1F0DFF851
:10086000CC160880DFF8C806007815281CDADFF8F7
:10087000C0060078401CDFF8B8160870DFF8A8063C
:10088000008840F60A71884203DB5520DFF8A41681
:100890000870DFF89806008840F60A71884203DB8A
:1008A0005520DFF894160870DFF858060078C00667
:1008B00075D4DFF878060088B0F5966F19DBDFF89D
:1008C00078060078552814D0DFF870060078401CB0
:1008D000DFF868160870DFF864060078142810DB6B
:1008E0001420DFF8581608705520DFF854160870E9
:1008F00007E00020DFF8481608700020DFF83C16FB
:100900000870DFF824060088B0F5966F19DBDFF871
:1009100024060078552814D0DFF828060078401CFB
:10092000DFF820160870DFF81C060078142810DBAA
:100930001420DFF8101608705520DFF80C16087028
:1009400007E00020DFF8001608700020DFF8F4153B
:100950000870DFF8F4050078552804D0DFF8E005CA
:100960000078552808D1DFF8B005007850F08000F5
:10097000DFF8A41508701AE0DFF8CC05007800282D
:1009800015D1DFF8BC050078002810D1DFF8880504
:10099000007810F07F00DFF88015087007E0DFF8BE
:1009A0007805007810F07F00DFF86C15087070474C
:1009B000DFF8980500783D2814DADFF89005007814
:1009C000401CDFF888150870DFF8840500680028EF
:1009D00008D1DFF880050078552803D05520DFF8CE
:1009E00074150870DFF86C050078002831D1DFF845
:1009F0005C0500783C282CDBDFF808050078400710
:100A000022D4DFF84C050068002814D1DFF848052F
:100A10000078401CDFF840150870DFF83C050078CE
:100A200003281ADB0320DFF8301508705520DFF8A3
:100A30002C15087011E00020DFF820150870002048
:100A4000DFF81415087008E00020DFF810150870B2
:100A500003E00020DFF80415087070470000000074
:100A600070B50024DFF8F854DFF8F4040068DFF80C
:100A7000F414884222D072B60426012000F03CFF14
:100A800000F09CFF352001F01CF8DFF8D40400F0E2
:100A9000A9FF0600F6B2042E0DD109E0E4B2DFF89A
:100AA000C80450F82410280000F0CBFF641C2D1D52
:100AB000E4B2022CF2DB62B600F08BFF70BD0000E6
:100AC00070B50024DFF8A454DFF8A0040068DFF854
:100AD000A014884222D072B60426012000F00CFF38
:100AE00000F06CFF352000F0ECFFDFF8800400F030
:100AF00079FF0600F6B2042E0DD109E0E4B2DFF86A
:100B0000740450F82410280000F09BFF641C2D1D75
:100B1000E4B2022CF2DB62B600F05BFF70BD0000B5
:100B2000500100204F010020510100200000002052
:100B300070000020520100205301002056010020C7
:100B400070B50024DFF81854DFF82064DFF82804BB
:100B50000078002800F0C181DFF81C040078401EF6
:100B6000DFF8141408700822DFF81014DFF81004FE
:100B700000F0E2FFDFF808040078A3285CD1DFF87A
:100B800000044078F12857D1DFF8F4038078AA28D0
:100B900052D1DFF8EC03C07855284DD1DFF8E003DF
:100BA0000079DFF8DC134979090451EA0060DFF8C5
:100BB000D013897950EA0120DFF8C413C9790843BA
:100BC000DFF8C0130860DFF8BC030068DFF8B81373
:100BD0000968884200F08181DFF8A8030068DFF827
:100BE0008813486072B60426012000F085FE00F0EC
:100BF000E5FE352000F065FFDFF8640300F0F2FE4B
:100C00000600F6B2042E0DD109E0E4B2DFF8580375
:100C100050F82410280000F014FF641C2D1DE4B2CD
:100C2000022CF2DB62B600F0D4FEDFF85C03006851
:100C3000DFF85813086050E1DFF844030078A32878
:100C40005FD1DFF83C034078F1285AD1DFF8300358
:100C50008078AA2855D1DFF82803C078AA2850D177
:100C6000DFF80C03DFF80C130860DFF814030079D9
:100C7000DFF80C134979090451EA0060DFF800132A
:100C8000897950EA0120DFF8F812C9790843DFF8C2
:100C900000130860DFF8F8020068DFF8F81209684E
:100CA000884200F01A81DFF8E8020068DFF8C41219
:100CB000486072B60425012000F01EFE00F07EFEA2
:100CC000352000F0FEFEDFF8A40200F08BFE0500E8
:100CD000EDB2042D0DD109E0E4B2DFF8980250F82E
:100CE0002410300000F0ADFE641C361DE4B2022C6E
:100CF000F2DB62B600F06DFE5520DFF89C12087042
:100D0000EBE0DFF87C020078A32840F0E680DFF813
:100D100070024078F12840F0E080DFF864028078CB
:100D2000AA2840F0DA80DFF85802C0785A2840F04C
:100D3000D480DFF858020068DFF86012401A2CD027
:100D4000401E32D0401E38D0401E3ED0401E44D0FF
:100D5000401E4AD0401E50D0401E56D0401E5CD08F
:100D6000401E62D0401E68D0401E6ED0401E74D01F
:100D7000401E7AD0401E00F08080401E00F085802A
:100D8000401E00F08A80401E00F08F80401E00F060
:100D90009480401E00F099809FE079480079C00758
:100DA00002D555207C49087097E075480079800786
:100DB00002D55520784908708FE0714800794007C6
:100DC00002D555207449087087E06D480079000706
:100DD00002D55520704908707FE069480079C00647
:100DE00002D555206C49087077E065480079800687
:100DF00002D55520684908706FE0614800794006C7
:100E000002D555206449087067E05D480079000606
:100E100002D55520604908705FE059484079C00705
:100E200002D555205C49087057E055484079800745
:100E300002D55520584908704FE051484079400785
:100E400002D555205449087047E04D4840790007C5
:100E500002D55520504908703FE049484079C00606
:100E600002D555204C49087037E045484079800646
:100E700002D55520484908702FE041484079400686
:100E800002D555204449087027E03D4840790006C6
:100E900002D55520404908701FE039488079C007C5
:100EA00002D555203C49087017E035488079800705
:100EB00002D55520384908700FE031488079400745
:100EC00002D555203449087007E02D488079000785
:100ED00002D5552030490870FFE770BD540100204D
:100EE00055010020440100200000B03FD800002040
:100EF0002000002058010020570100206E01002032
:100F00004A0100206A010020590100203C01002014
:100F1000B00000205A010020280100205B010020C1
:100F20005C0100203801002046010020480100201B
:100F30005E0100205F0100206301002060010020AD
:100F4000620100205D010020610100206501002098
:100F50000081214266010020640100204E01002032
:100F600000F00008AAAA55550C00002000F800085F
:100F70005555AAAA140000206D010020F70000209A
:100F8000200100202C01002004F000083401002082
:100F90003001002004F800086F010020515AFF18AA
:100FA00009214843DFF8B41608600020DFF8B016C6
:100FB00008600120DFF8AC160860DFF8A8060068BA
:100FC00010F001100128F8D00020DFF89816086012
:100FD0000020DFF88C160860704780B242F228319A
:100FE0004843DFF8781608600020DFF874160860C0
:100FF0000120DFF870160860DFF86806006810F05E
:1010000001100128F8D00020DFF8581608600020F1
:10101000DFF84C160860704780B50820ADF8000076
:1010200048208DF8030000A9DFF83C0600F08AFD97
:1010300001BD80B50820ADF8000003208DF8020046
:1010400010208DF8030000A9DFF81C0600F07AFDDF
:1010500001BD80B5FFF7EDFF0120DFF81016086035
:101060000A20FFF79DFF0020DFF8001608604FF40C
:10107000FA70FFF795FF0120DFF8F01508604FF4D4
:101080009670FFF78DFFFFF7C7FFDFF8E4050068F4
:10109000DFF8E01508701420FFF782FFFFF7C9FFA3
:1010A0000120DFF8C8150860DFF8C805007802BD28
:1010B0000000000010B5040072B6FFF7BAFF002070
:1010C000DFF8A81508600220FFF76AFFE00704D5E3
:1010D0000120DFF89815086003E00020DFF88C1588
:1010E00008603C20FFF75CFF0120DFF880150860F6
:1010F00062B610BD38B5040072B6FFF79AFF00253E
:101100000EE00020DFF8641508603220FFF748FF8A
:101110000120DFF8581508600A20FFF741FF6D1C19
:10112000EDB2082D10DA0020DFF840150860052028
:10113000FFF736FFE4B254FA05F0C007E1D501200D
:10114000DFF828150860E0E762B631BD10B572B669
:10115000FFF76FFF0020DFF8141508600220FFF78B
:101160001FFF0120DFF8041508600720FFF718FFB4
:10117000FFF752FFDFF8F80404683C20FFF710FF88
:10118000FFF757FF0120DFF8E414086062B6200083
:10119000C0B210BD38B50024002572B6002004008E
:1011A0001EE0EDB26D08FFF744FF0020DFF8BC142D
:1011B00008600420FFF7F4FE0120DFF8B014086097
:1011C0000A20FFF7EDFEFFF727FFDFF8A404006811
:1011D000012801D155F080052D20FFF7E1FE641CA8
:1011E000E4B2082CDDDB62B62800C0B232BD80B5A7
:1011F0000121012000F0A5FB0121022000F0A1FB4C
:1012000001215FF0007000F09CFB0121012000F043
:1012100088FB01217C2000F084FB01BD38B504006F
:101220000D0045F2555000F0F1FC2000C0B200F076
:10123000F1FC280080B200F0F1FC00F0F3FC00F0BB
:10124000F6FC31BD80B500F0EDFC01BD80B55FF06E
:10125000804000F0F7FC6320DFF81C14888048F61B
:101260009F40DFF8141408800020DFF80C14C880B9
:101270000020DFF804144880DFF8FC135FF08040A2
:1012800000F0CFFD4FF4A06000F054FE1C20DFF80A
:10129000EC1308700020DFF8E41348700020DFF83A
:1012A000DC1388700120DFF8D413C870DFF8CC039A
:1012B00000F045FE012201215FF0804000F009FEB0
:1012C00001215FF0804000F0F6FD01BD80B5DFF840
:1012D000B00300F0B7FCC720DFF89C13888048F605
:1012E0009F40DFF8941308800020DFF88C13C8803B
:1012F0000020DFF884134880DFF87C13DFF88003D8
:1013000000F08FFD4FF4A06000F014FE1D20DFF808
:101310006C1308700020DFF8641348700120DFF8B8
:101320005C1388700120DFF85413C870DFF84C0399
:1013300000F005FE01220121DFF8440300F0C9FDA1
:101340000121DFF83C0300F0B6FD01BD80B54FF48C
:101350008070ADF8000003208DF8020010208DF899
:10136000030000A9DFF8000300F0ECFB0020DFF829
:10137000181308600120ADF8000001208DF802006C
:1013800048208DF8030000A9DFF8F80200F0DAFB2E
:1013900001BD80B53020ADF8000010208DF80300AD
:1013A00003208DF8020000A9DFF8BC0200F0CAFBA0
:1013B0000120DFF8D81208600020DFF8D41208609E
:1013C000C820FFF70AFE01BD00B589B0B14800781A
:1013D000B14908704FF48050ADF8000018208DF826
:1013E000030003208DF8020000A99F4800F0AAFB2B
:1013F0004FF40060ADF8000048208DF80300032092
:101400008DF8020000A9984800F09CFBA34800F06A
:10141000D1FD01A800F0FAFE00208DF80A0001209D
:101420008DF80B0000208DF80C0000208DF80D00C9
:1014300000208DF80E0000208DF80F0000208DF8A0
:10144000060000208DF8070093480078642809D131
:101450000F208DF8080002208DF809001220ADF849
:10146000040032E08C4800787D2809D10C208DF8EA
:10147000080001208DF809001220ADF8040024E0D6
:1014800085480078FA2809D10C208DF80800012041
:101490008DF809000920ADF8040016E07E480078B8
:1014A000322809D10D208DF8080002208DF809009E
:1014B0000420ADF8040008E00C208DF8080001209D
:1014C0008DF809000920ADF8040001A9734800F067
:1014D0008CFD00208DF81E0000208DF81F000120DB
:1014E0008DF820004CF2F870ADF8140049F2A0100D
:1014F000ADF816004FF6FF70ADF818004FF6F87013
:10150000ADF81A000020ADF81C0001208DF8210074
:1015100005A800F0F2FD01220221604800F09DFFC5
:101520004FF4A06000F006FD14208DF8100000209C
:101530008DF8110002208DF8120001208DF81300A3
:1015400004A800F0FCFC09B000BD00B591B0012179
:10155000012000F0D6F901214FF4017000F0E1F90B
:10156000C620ADF8000000208DF8030000A93E4819
:1015700000F0E8FA4A4800F0D7FF4A4806904A4887
:101580000790002008901420099000200A908020E5
:101590000B904FF480700C904FF480600D902020E1
:1015A0000E904FF400500F900020109006A93C4878
:1015B00001F03FF800220221394801F067F80121CB
:1015C000374801F055F80020019001208DF80800FF
:1015D00001208DF809005FF4602003900020049042
:1015E00004208DF8140001A9304801F077F8062393
:1015F000012207212D4801F0DCF8062302220121F7
:101600002A4801F0D6F8062303220221274801F0D8
:10161000D0F8062304220621244801F0CAF801214B
:10162000224801F08EF80121204801F07DF81F4882
:1016300001F094F81D4801F096F80028FAD11B48F3
:1016400001F09BF8194801F09DF80028FAD101211A
:10165000164801F0A1F811B000BD000014E000E050
:1016600018E000E010E000E0000801408C01214299
:101670000C0121424C0100201401002040010020F7
:1016800000040040000C0140A001214290012142D1
:101690009401214206F800084D010020006400403A
:1016A000080002404C240140B0000020002401400A
:1016B000010040F10780F446404200F003F851F089
:1016C0000041604709D0B0FA80F18840C91CC1F5DB
:1016D0008461090501EBD02140057047B0B581EA6E
:1016E000030C0CF0004C40F2FF7515EA11541DBFBD
:1016F00015EA1357AC42AF4239E0E41923EA4553E7
:1017000043F48013C90241F0004141EA505EC70230
:101710001100A7FB020200284FF00000EEFB0120A1
:101720004FF00001E3FB072118BF42F0010240180F
:1017300000214941E3FB0E01A4F580640F0302D2AE
:1017400052004041494154F101046CDD470872F1F7
:10175000004250F1000051EB0451A1F580115CBF33
:1017600041EA0C01B0BD4CEA05510020B0BD05EACC
:101770001357AC4214BFAF4241E050EA410E1CBFC8
:1017800052EA430E02E061460020B0BD24423C44D0
:101790001BD15FEA070EF6D0090302BF0146002005
:1017A000AEF1140EB1FA81F7AEEB070401FA07FEB1
:1017B0000C37C7F1200100FA07F7C8404EEA000EC7
:1017C00023EA455343F48013A2E733F00043B3FA0E
:1017D00083F704BFB2FA82FE77440B3FE41BB7F1F4
:1017E000200E2FBF02FA0EF3BB40C7F1200E22FAE3
:1017F0000EFE38BF43EA0E03BA40641C82E750EA8B
:10180000410E14BF52EA430E6FF000014FF400176F
:1018100017EB430F8ABF194617EB410FB5E74CEAA8
:1018200005510020B0BDD4F10104B4F120070FDA56
:10183000C4F12007520828BF42F0010210FA07F550
:1018400001FA07F7E1BF2A43E0403843E1400FE0E7
:10185000352C98DCC7F1200452EA400220FA07F246
:1018600018BF42F0010231FA07F0A1400A430021FB
:1018700072F1004250F1000051EB0C01B0BD10B408
:1018800050F8041B81B102681218001D50F8043B87
:10189000DC0744BFA9F10104E31852F8044B43F8F4
:1018A000044B091FF9D1EBE710BC7047F446400D1B
:1018B00040EAC120490006D200F00EF8004248BFBD
:1018C0006FF00040604700F007F84FF00041884299
:1018D0008CBF08464042604740F00040490DA1F5EA
:1018E0008061491C05D4D1F11F0154BFC840C01705
:1018F00070474FF000007047C0B2DFF8A8100860D2
:101900007047C9B2002905D027490968084326490C
:10191000086005E02449096831EA000022490860AE
:101920007047C9B2002905D02049096808431F49FA
:10193000086005E01D49096831EA00001B4908609C
:101940007047C9B2002905D01949096808431849E8
:10195000086005E01649096831EA0000144908608A
:101960007047C9B2002905D01249096808431149D6
:10197000086005E00F49096831EA00000D49086078
:101980007047C9B2002905D00B49096808430A49C4
:10199000086005E00849096831EA00000649086066
:1019A000704700000000424214100240181002402C
:1019B0001C1002400C10024010100240DFF83401ED
:1019C000DFF834110860DFF83401DFF82C1108600B
:1019D0007047DFF82C01006850F08000DFF820111C
:1019E0000860704738B5040004255FF4302000F02B
:1019F0008DF80500EDB2042D20D1DFF80401006858
:101A000050F00200DFF8F8100860DFF8F80004601A
:101A1000DFF8EC00006850F04000DFF8E4100860E8
:101A20005FF4302000F072F80500DFF8D4000068A1
:101A300041F6FD710840DFF8C81008602800C0B208
:101A400032BD70B582B005000C0004260020009065
:101A50004FF4005000F05AF80600F6B2042E2DD1D3
:101A6000DFF89C00006850F00100DFF89410086077
:101A70002C804FF4005000F049F80600F6B2042E16
:101A800013D1A81C0090200C009908804FF400503E
:101A900000F03CF80600DFF86800006841F6FE71CF
:101AA0000840DFF85C10086008E0DFF854000068C8
:101AB00041F6FE710840DFF8481008603000C0B2FF
:101AC00076BD11490860704704200F490968C907AD
:101AD00001D501200CE00C480068400701D5022028
:101AE00006E009480068C00601D5032000E0042094
:101AF000C0B270472301674504200240AB89EFCD97
:101B000010200240142002400C20024038B504008E
:101B10000425FFF7D9FF050003E0FFF7D5FF050017
:101B2000641EEDB2012D01D1002CF6D1002C00D1A4
:101B300005252800C0B232BD10B5044600F0A0FE55
:101B4000204610BDF0B4002200260024002500230A
:101B5000002791F803C01CF00F0C624691F803C0F7
:101B60005FEACC6C01D58B781A430B781B0621D029
:101B70000368002406E0CD78482D02D10125A54058
:101B80000561641C082C14D20125A5400E882E4046
:101B9000AE42F6D1A5000F2616FA05F7BB4312FA9E
:101BA00005F52B43CD78282DE5D10125A5404561CC
:101BB000E7E703600B88FF2B26DD4368002420E065
:101BC000012514F10806B5400E882E40AE4217D10B
:101BD000A5000F2616FA05F7BB4312FA05F52B43AD
:101BE000CD78282D04D1012514F10806B5404561B2
:101BF000CD78482D04D1012514F10806B5400561C2
:101C0000641C082CDCD34360F0BC704780B20A49E6
:101C100008607047C0B209490860704780B208493F
:101C2000086070474AF6AA200349086070474CF6DE
:101C3000CC4001490860704700300040043000404B
:101C40000830004080B5DFF8AC1288420AD101218B
:101C50004FF40060FFF785FE00214FF40060FFF7AE
:101C600080FEDDE0B0F1804F08D101210120FFF7B7
:101C700088FE00210120FFF784FED1E0DFF8781212
:101C8000884208D101210220FFF77BFE00210220BB
:101C9000FFF777FEC4E0DFF86412884208D1012123
:101CA0000420FFF76EFE00210420FFF76AFEB7E074
:101CB000DFF84C12884208D101210820FFF761FEAD
:101CC00000210820FFF75DFEAAE0DFF83812884205
:101CD00008D101211020FFF754FE00211020FFF74A
:101CE00050FE9DE0DFF82012884208D1012120201B
:101CF000FFF747FE00212020FFF743FE90E0DFF8CA
:101D00000C1288420AD101214FF40050FFF729FE3E
:101D100000214FF40050FFF724FE81E0DFF8F011BE
:101D200088420AD101215FF40020FFF71AFE00214A
:101D30005FF40020FFF715FE72E0DFF8D81188424B
:101D40000AD101215FF48010FFF70BFE00215FF440
:101D50008010FFF706FE63E0DFF8BC1188420AD16D
:101D600001215FF40010FFF7FCFD00215FF400107B
:101D7000FFF7F7FD54E0DFF8A411884208D10121F4
:101D80004020FFF7FEFD00214020FFF7FAFD47E06D
:101D9000DFF88C11884208D101218020FFF7F1FD86
:101DA00000218020FFF7EDFD3AE0DFF8781188424E
:101DB0000AD101214FF48070FFF7E3FD00214FF4B9
:101DC0008070FFF7DEFD2BE0DFF85C1188420AD15E
:101DD00001215FF48030FFF7C4FD00215FF4803003
:101DE000FFF7BFFD1CE0DFF8441188420AD1012152
:101DF0005FF40030FFF7B5FD00215FF40030FFF71E
:101E0000B0FD0DE0DFF82811884209D101215FF40F
:101E10008020FFF7A6FD00215FF48020FFF7A1FDE1
:101E200001BD002203881A00DFF8C830984212D0A2
:101E3000DFF8D83098420ED0B0F1804F0BD0DFF8E9
:101E4000B830984207D0DFF8B430984203D0DFF8BA
:101E5000B030984204D14FF68F731A404B881A4322
:101E6000DFF8A030984208D0DFF89C30984204D0C8
:101E70004FF6FF431A40CB881A4302808A88828536
:101E80000A880285DFF86C2090420FD0DFF87C20B2
:101E900090420BD0DFF89020904207D0DFF88C20E2
:101EA000904203D0DFF88820904201D1097A018660
:101EB000012181827047C9B2002904D0018851F004
:101EC0000101018004E001884FF6FE72114001809B
:101ED0007047D2B2002A03D082891143818103E086
:101EE000828932EA01018181704789B2C943018246
:101EF00070470000002C0140000400400008004032
:101F0000000C00400010004000140040003401406C
:101F1000004C0140005001400054014000180040B6
:101F2000001C0040002000400040014000440140EF
:101F3000004801401A4908431A490860704710B424
:101F4000002100220F23C478002C1DD015490968F8
:101F500011F4E061D1F5E061090AD1F10402CB404E
:101F60004178914082781A401143090102780E4B62
:101F7000D1540121027812F01F02914000784011E3
:101F80000A4A42F8201009E00121027812F01F02EB
:101F9000914000784011064A42F8201010BC70476A
:101FA0000000FA050CED00E000E400E000E100E0D4
:101FB00080E100E080B5DFF8501588420AD10121A8
:101FC0005FF00070FFF7DDFC00215FF00070FFF7AD
:101FD000D8FC09E001215FF08060FFF7D2FC00210E
:101FE0005FF08060FFF7CDFC01BD10B4002200233C
:101FF000046834F002040460046854F001040460CE
:1020000000E05B1C4268D20703D44FF6FF72934294
:10201000F7D14268D20701D400226AE08A79012A06
:1020200004D1026852F08002026003E0026832F0DC
:1020300080020260CA79012A04D1026852F040028B
:10204000026003E0026832F0400202600A7A012A6C
:1020500004D1026852F02002026003E0026832F00C
:10206000200202604A7A012A04D1026852F010026A
:10207000026003E0026832F0100202608A7A012AEC
:1020800004D1026852F00802026003E0026832F0F4
:1020900008020260CA7A012A04D1026852F00402DE
:1020A000026003E0026832F0040202608A78CB78B2
:1020B0001B0653EA82720B7952EA03424B7952EAC9
:1020C00003520988491E1143C1610168490849004A
:1020D0000160002300E05B1C4168C90703D54FF68F
:1020E000FF718B42F7D14068C00701D5002200E0A4
:1020F00001221000C0B210BC704710B400210122B0
:10210000837A9A401100DFF80424126852F0010229
:10211000DFF8F8331A60DFF8F82312688A43DFF833
:10212000F0331A60027B002A19D1DFF8E823126825
:102130008A43DFF8E0331A60C288438853EA0242D8
:10214000837ADFF8D44344F83320827ADFF8C83347
:1021500013EBC2028388048854EA03435360027B72
:10216000012A19D1DFF8AC2312680A43DFF8A4333F
:102170001A600288438853EA0242837ADFF8984360
:1021800044F83320827ADFF8903313EBC20283885D
:10219000C48854EA03435360C27A002A07D1DFF8A7
:1021A0007C2312688A43DFF874331A6006E0DFF894
:1021B0006C2312680A43DFF864331A600289002A2C
:1021C00006D1DFF85C2312688A43DFF854331A60C3
:1021D0000289012A06D1DFF8482312680A43DFF892
:1021E00040331A60407B012806D1DFF824030068E1
:1021F0000843DFF81C130860DFF81003006840088C
:102200004000DFF80813086010BC7047002181719E
:102210000021C171002101720021417200218172EF
:102220000021C172002181700021C1700321017160
:102230000221417101210180704730B4002283687E
:102240005B0101D500220AE08268120101D501225A
:1022500005E08268D20001D5022200E00422D2B259
:10226000042A75D0D2B210EB0213D3F8803113F0E8
:102270000103D2B210EB0214C4F880310B7A002BA8
:102280000FD1D2B210EB0213D3F880310C684D7A23
:1022900055EA44542343D2B210EB0214C4F88031FF
:1022A00010E0D2B210EB0213D3F880314C680D7AF3
:1022B00055EAC4044D7A2C432343D2B210EB0214E6
:1022C000C4F880318B7A13F00F038B72D2B210EB0B
:1022D0000213D3F884311B091B01D2B210EB021494
:1022E000C4F88431D2B210EB0213D3F884318C7A63
:1022F0002343D2B210EB0214C4F884318B7B4C7BA5
:10230000240454EA03630C7B53EA0423CC7A23436A
:10231000D2B210EB0214C4F888318B7C4C7C2404BC
:1023200054EA03630C7C53EA0423C97B1943D2B2F9
:1023300010EB0213C3F88C11D2B210EB0211D1F8DA
:10234000801151F00101D2B210EB0210C0F88011DF
:102350001000C0B230BC7047C9B210EB0113D3F803
:10236000B03113F004031372137A002B07D1C9B2F2
:1023700010EB0113D3F8B0315B0D136006E0C9B266
:1023800010EB0113D3F8B031DB085360C9B210EB86
:102390000113D3F8B03113F002035372C9B210EB3A
:1023A0000113D3F8B43113F00F039372C9B210EBD9
:1023B0000113D3F8B4311B0AD374C9B210EB011363
:1023C000D3F8B831D372C9B210EB0113D3F8B831D6
:1023D0001B0A1373C9B210EB0113D3F8B8311B0CED
:1023E0005373C9B210EB0113D3F8B8311B0E9373BA
:1023F000C9B210EB0113D3F8BC31D373C9B210EBDF
:102400000113D3F8BC311B0A1374C9B210EB0113CA
:10241000D3F8BC311B0C5374C9B210EB0113D3F8C1
:10242000BC311B0E9374C9B2002904D1C16851F0AC
:102430002001C16003E0016951F020010161704792
:10244000C9B2002904D1C16851F02001C16003E084
:10245000016951F0200101617047D2B2002A03D016
:1024600042691143416103E0426932EA010141617D
:10247000704701291DD004291ED008291FD020290A
:1024800020D0402921D0B1F5807F27D0B1F5007F41
:1024900027D0B1F5806F27D0B1F5006F27D0B1F507
:1024A000004F29D0B1F5803F12D0B1F5003F12D0D6
:1024B00027E01C49816024E00821C16021E010214F
:1024C000C1601EE0082101611BE01021016118E0DC
:1024D0000821416015E01021416012E004214160B3
:1024E0000FE0042141600CE00421416009E000217B
:1024F00081610421416004E0002181610421416087
:10250000FFE77047000000000064004000660040E4
:102510001C6600400C6600404066004004660040B7
:10252000146600400101010001684FF6FE7211407F
:1025300001600021016000214160002181600021D3
:10254000C1605849884206D15748006850F00F00D2
:10255000554908606CE05549884206D152480068E8
:1025600050F0F0005049086062E05149884206D1BD
:102570004D48006850F470604B49086058E04D4980
:10258000884206D14848006850F4704046490860C7
:102590004EE04949884206D14348006850F4702013
:1025A0004149086044E04549884206D13E480068F8
:1025B00050F470003C4908603AE04149884206D135
:1025C0003948006850F070603749086030E03D4994
:1025D000884206D13C48006850F00F003A49086034
:1025E00026E03A49884206D13748006850F0F000AA
:1025F000354908601CE03649884206D132480068F7
:1026000050F470603049086012E03249884206D1C7
:102610002D48006850F470402B49086008E02E49AE
:10262000884205D12848006850F470202649086087
:10263000704710B4002203681A006FF30E128B6803
:102640000C6A23430C6923434C6923438C6923435D
:10265000CC6923434C6A23438C6A23431A430260A8
:10266000CA6842600A6882604968C16010BC7047ED
:10267000C9B2002904D0016851F00101016004E0F1
:1026800001684FF6FE72114001607047D2B2002A15
:1026900003D002681143016003E0026832EA0101DD
:1026A0000160704708000240040002401C00024024
:1026B0003000024044000240580002406C000240DA
:1026C0008000024008040240040402401C0402404E
:1026D00030040240440402405804024030B4002355
:1026E000002244682300DFF8904123400C680D79F4
:1026F00054EA0524234343608368DFF88041234084
:10270000CC688D682C434D7954EA4504234383609B
:10271000C36A33F47003097C491E0A43D2B253EAF8
:102720000253C36230BC7047C9B2002904D081682B
:1027300051F00101816003E081684908490081602E
:102740007047C9B2002904D0816851F4807181605A
:1027500003E0816831F4807181607047816851F0D5
:1027600008018160704700218068000701D50121C0
:1027700000E000210800C0B27047816851F00401F8
:102780008160704700218068400701D5012100E089
:1027900000210800C0B27047C9B2002904D0816886
:1027A00051F4A001816003E0816831F4A0018160EF
:1027B0007047F0B400240025C9B20A2911DBC468AF
:1027C0000725B1F10A0603277E43B540AC43DBB2CF
:1027D000B1F10A050326754313FA05F52C43C460CD
:1027E0000EE004690725032606FB01F6B540AC435D
:1027F000DBB2032505FB01F513FA05F52C43046153
:10280000D2B2072A10DA446B1F23551E05267543E2
:1028100013FA05F5AC43C9B2521E05235A4311FA07
:1028200002F52C43446324E0D2B20D2A10DA046B83
:102830001F23D51F0526754313FA05F5AC43C9B20E
:10284000D21F05235A4311FA02F52C43046310E00A
:10285000C46A1F23B2F10D050526754313FA05F569
:10286000AC43C9B20D3A05235A4311FA02F52C4381
:10287000C462F0BC70470000FFFEF0FFFDF7F1FFFF
:1028800062B38B0708D0521E11F8013B00F8013BE0
:1028900000F024808B07F6D1830740F0208000BF32
:1028A000103A07D330B4B1E83810103AA0E8381025
:1028B000F9D230BC530724BFB1E80810A0E80810D3
:1028C00044BF51F8043B40F8043BD20724BF31F821
:1028D000022B20F8022B44BF0B7803707047083A94
:1028E00007D3B1E80810083A40F8043B40F804CB9D
:1028F000F7D25307E4E750F8041B61B150F8042BFA
:10290000D30744BFA9F101039A18002342F8043BFE
:10291000091FFAD1EFE77047012110F01F02914023
:1029200040B24009DFF8182442F820107047012116
:1029300010F01F02914040B24009DFF8082442F82D
:1029400020107047704780B501215FF08040FFF78D
:10295000CCFADFF8F4030078401CDFF8EC130870C1
:10296000DFF8E8030078C0F34000C0B2002820D0B0
:102970000020DFF8DC130870DFF8D8030078401C73
:10298000DFF8D0130870DFF8CC030078052847D1B2
:102990000020DFF8C0130870DFF8BC0300680028CF
:1029A00001D1012000E00020C0B2DFF8AC130860C4
:1029B00036E0DFF8A80300780321084220D0002089
:1029C000DFF890130870DFF888030078401CDFF808
:1029D00080130870DFF878030078142820D10020D5
:1029E000DFF86C130870DFF870030068002801D16D
:1029F000012000E00020C0B2DFF85C1308600FE0A7
:102A0000DFF84803007810F00100002804D000200F
:102A1000DFF84413086003E00120DFF83C1308608E
:102A2000DFF824030078DFF838130978B0EB410FA2
:102A30005ED10020DFF810130870DFF81003007873
:102A4000002804D1DFF814030078002804D0042003
:102A5000DFF8101308700DE0DFF8F00200780028AE
:102A600008D1DFF8F8020078002803D10220DFF84F
:102A7000F4120870DFF8F0020068DFF8F012486026
:102A80000020DFF8E81248720420DFF8E012087234
:102A90000820B6498872B3480078B449C872AB4878
:102AA0000078B2490873AD480078B0494873FDF723
:102AB00083FDAE4988730020AC49C8730020AB4940
:102AC00008740020A9494874A9480078A749887467
:102AD000A649A848FFF7B1FBA5480078FF2802D116
:102AE0000020A3490870A2480078401CA049087043
:102AF000A1480078552830D1A0489C494860002062
:102B00009A494872042099490872082097498872A6
:102B1000954800689549C8729948007893490873A8
:102B20008F4800789149487320209049887322206B
:102B30008E49C873934800788C490874924800788D
:102B40008A49487491480078884988748749894837
:102B5000FFF773FB00208849087001BD80B5012193
:102B60008B48FFF7C2F98B480078401C89490870F0
:102B7000884800780A281FD10020864908708148BB
:102B80000078401C7F4908707E4800783C2813D1AB
:102B900000207C4908707C480078401C7A49087005
:102BA000794800783C2807D1002077490870774899
:102BB0000078401C754908707748007801280AD0D1
:102BC00076480078552806D1012073490870FDF732
:102BD000F3FC734908807248B0F900007149B1F9FB
:102BE0000010884245DA6E48B0F90000322840DB18
:102BF0006A48007855283CD16B480078401C6A49E7
:102C0000087069480078642846D100206649087039
:102C10006348B0F900000A306249B1F900108842F7
:102C200016DA62480078000706D44C48007850F065
:102C300002004A49087005E04848007810F0FD009D
:102C400046490870564800880A305549088023E0F4
:102C500054480088524908804048007810F0FD0030
:102C60003E4908705248007810F0F700504908704B
:102C700012E04C4800884A4908803848007810F033
:102C8000FD00364908704A48007810F0F7004849BE
:102C90000870002044490870FDF794FDFDF7B0FD71
:102CA0002E48007810F00100002806D04048007837
:102CB000C0B2C009C0B2002815D12448007810F075
:102CC0000100002816D03A480078C0B2C009C0B24E
:102CD000002808D1214800780321084203D1354853
:102CE0000078552806D11948007850F0020017499D
:102CF000087005E01548007810F0FD0013490870D1
:102D000001BD704780B51420FFF711FE022119485C
:102D1000FFF7AFFB284A00211648FFF71DFB2748A5
:102D20000078052804DA25480078401C23490870FB
:102D300000211048FFF784FB1420FFF7EDFD01BDD3
:102D400000E100E080E100E0700100203801002097
:102D50007201002071010020940121423C010020F9
:102D60006B0100201E000020340100200001002023
:102D700073010020006400406F0100202143FF1810
:102D800007F80008670100206801002069010020A1
:102D90000004004076010020750100206E01002033
:102DA0001C0000204A010020740100206A0100205C
:102DB000280100204E010020EC0000206D010020C1
:102DC00070477047FEE7FEE7FEE7FEE77047704793
:102DD0007047704780B54F48006850F001004D497A
:102DE00008604D4800684D4908404B490860494813
:102DF00000684B490840474908604648006830F47D
:102E00008020444908604448006830F4FE0042498C
:102E100008605FF41F004349086000F005F85FF0A8
:102E200000604149086001BD80B500F001F801BDB6
:102E300082B000200190002000903648006850F4D5
:102E40008030344908603348006810F40030009046
:102E50000198401C01900098002803D10198B0F51A
:102E6000A06FF0D12B480068800302D501200090AC
:102E700001E0002000900098012847D12B4800680D
:102E800050F0100029490860284800688008800038
:102E9000264908602548006850F002002349086070
:102EA0001D4800681C4908601B4800681A490860F2
:102EB0001948006850F48060174908601648006897
:102EC00030F47C10144908601348006850F4E8108E
:102ED000114908600F48006850F080700D49086083
:102EE0000C4800688001FBD50B4800688008800012
:102EF000094908600848006850F002000649086067
:102F00000548006810F00C000828F9D102B070479D
:102F10000000000000100240041002400000FFF812
:102F2000FFFFF6FE0810024008ED00E0002002401E
:102F300080B5FEF75CF9FEF72CFAFEF707FAFDF70D
:102F40008FFDFDF7BDFDFEF73FFA144800781449E8
:102F5000087014480078144908701448006814492F
:102F60000860FEF7F2FA1348FDF7C0F8124908703E
:102F7000FEF76CF9FEF7AAF94FF4C8710520FEF7C9
:102F80004DF9FDF774FAFDF713FDFDF7D9FDFEF7D6
:102F900059F99620FEF721F8F3E700BF07F800087B
:102FA0006A01002005F800086B01002004F0000809
:102FB00034010020200000206C01002010B50749DA
:102FC00079441831064C7C44163404E00A68081D24
:102FD000511888470146A142F8D110BD08000000F1
:102FE0002800000013F9FFFF580100002000002016
:102FF000000000008BE8FFFF2000000070000000D0
:10300000000000200000000000F00BF8002801D0B4
:10301000FFF7D4FF0020C046C046FFF789FF00F04D
:1030200002F80120704700F001B80000074638465A
:1030300000F002F8FBE7000080B5C046C046024A37
:1030400011001820ABBEFBE72600020001488047B4
:1030500001480047D52D00085D300008C046C04635
:10306000C046C046FFF7D0FFFFF7FEBF02020202D4
:103070000202020202020000AAAA5555515AFF1884
:0C3080005555AAAA0005FA00FF00020046
:040000050800305D62
:00000001FF
